{
  "contractName": "PropertyRegistry",
  "abi": [
    {
      "constant": true,
      "inputs": [
        {
          "name": "",
          "type": "uint256"
        }
      ],
      "name": "propertyDetails",
      "outputs": [
        {
          "name": "price",
          "type": "uint256"
        },
        {
          "name": "requested",
          "type": "address"
        },
        {
          "name": "approved",
          "type": "address"
        },
        {
          "name": "occupant",
          "type": "address"
        },
        {
          "name": "checkIn",
          "type": "uint256"
        },
        {
          "name": "checkOut",
          "type": "uint256"
        },
        {
          "name": "stays",
          "type": "uint256"
        },
        {
          "name": "uri",
          "type": "string"
        }
      ],
      "payable": false,
      "stateMutability": "view",
      "type": "function"
    },
    {
      "inputs": [
        {
          "name": "_propertyContract",
          "type": "address"
        },
        {
          "name": "_propertyToken",
          "type": "address"
        }
      ],
      "payable": false,
      "stateMutability": "nonpayable",
      "type": "constructor"
    },
    {
      "anonymous": false,
      "inputs": [
        {
          "indexed": true,
          "name": "_tokenId",
          "type": "uint256"
        }
      ],
      "name": "Registered",
      "type": "event"
    },
    {
      "anonymous": false,
      "inputs": [
        {
          "indexed": true,
          "name": "_tokenId",
          "type": "uint256"
        }
      ],
      "name": "Approved",
      "type": "event"
    },
    {
      "anonymous": false,
      "inputs": [
        {
          "indexed": true,
          "name": "_tokenId",
          "type": "uint256"
        }
      ],
      "name": "Requested",
      "type": "event"
    },
    {
      "anonymous": false,
      "inputs": [
        {
          "indexed": true,
          "name": "_tokenId",
          "type": "uint256"
        }
      ],
      "name": "CheckIn",
      "type": "event"
    },
    {
      "anonymous": false,
      "inputs": [
        {
          "indexed": true,
          "name": "_tokenId",
          "type": "uint256"
        }
      ],
      "name": "CheckOut",
      "type": "event"
    },
    {
      "constant": true,
      "inputs": [
        {
          "name": "_tokenId",
          "type": "uint256"
        }
      ],
      "name": "getPropertyDetails",
      "outputs": [
        {
          "name": "",
          "type": "uint256"
        },
        {
          "name": "",
          "type": "string"
        }
      ],
      "payable": false,
      "stateMutability": "view",
      "type": "function"
    },
    {
      "constant": true,
      "inputs": [
        {
          "name": "_tokenId",
          "type": "uint256"
        }
      ],
      "name": "getDetailedPropertyDetails",
      "outputs": [
        {
          "name": "",
          "type": "address"
        },
        {
          "name": "",
          "type": "address"
        },
        {
          "name": "",
          "type": "address"
        },
        {
          "name": "",
          "type": "uint256"
        },
        {
          "name": "",
          "type": "uint256"
        }
      ],
      "payable": false,
      "stateMutability": "view",
      "type": "function"
    },
    {
      "constant": false,
      "inputs": [
        {
          "name": "_tokenId",
          "type": "uint256"
        },
        {
          "name": "_price",
          "type": "uint256"
        },
        {
          "name": "_uri",
          "type": "string"
        }
      ],
      "name": "registerProperty",
      "outputs": [],
      "payable": false,
      "stateMutability": "nonpayable",
      "type": "function"
    },
    {
      "constant": false,
      "inputs": [
        {
          "name": "_tokenId",
          "type": "uint256"
        },
        {
          "name": "_checkIn",
          "type": "uint256"
        },
        {
          "name": "_checkOut",
          "type": "uint256"
        }
      ],
      "name": "requestStay",
      "outputs": [],
      "payable": false,
      "stateMutability": "nonpayable",
      "type": "function"
    },
    {
      "constant": false,
      "inputs": [
        {
          "name": "_tokenId",
          "type": "uint256"
        }
      ],
      "name": "approveRequest",
      "outputs": [],
      "payable": false,
      "stateMutability": "nonpayable",
      "type": "function"
    },
    {
      "constant": false,
      "inputs": [
        {
          "name": "_tokenId",
          "type": "uint256"
        }
      ],
      "name": "checkIn",
      "outputs": [],
      "payable": false,
      "stateMutability": "nonpayable",
      "type": "function"
    },
    {
      "constant": false,
      "inputs": [
        {
          "name": "_tokenId",
          "type": "uint256"
        }
      ],
      "name": "checkOut",
      "outputs": [],
      "payable": false,
      "stateMutability": "nonpayable",
      "type": "function"
    }
  ],
  "bytecode": "0x608060405234801561001057600080fd5b506040516040806119df8339810180604052810190808051906020019092919080519060200190929190505050816000806101000a81548173ffffffffffffffffffffffffffffffffffffffff021916908373ffffffffffffffffffffffffffffffffffffffff16021790555080600160006101000a81548173ffffffffffffffffffffffffffffffffffffffff021916908373ffffffffffffffffffffffffffffffffffffffff1602179055505050611910806100cf6000396000f30060806040526004361061008e576000357c0100000000000000000000000000000000000000000000000000000000900463ffffffff1680630a65be6714610093578063126dbe43146100d45780631bd2eeee1461018157806381db4147146101ae578063ccfc7f7214610309578063d7d1bbdb14610386578063e95a644f146103b3578063f69f523a146103e0575b600080fd5b34801561009f57600080fd5b506100d26004803603810190808035906020019092919080359060200190929190803590602001909291905050506104c1565b005b3480156100e057600080fd5b506100ff6004803603810190808035906020019092919050505061065a565b6040518083815260200180602001828103825283818151815260200191508051906020019080838360005b8381101561014557808201518184015260208101905061012a565b50505050905090810190601f1680156101725780820380516001836020036101000a031916815260200191505b50935050505060405180910390f35b34801561018d57600080fd5b506101ac60048036038101908080359060200190929190505050610730565b005b3480156101ba57600080fd5b506101d960048036038101908080359060200190929190505050610b09565b604051808981526020018873ffffffffffffffffffffffffffffffffffffffff1673ffffffffffffffffffffffffffffffffffffffff1681526020018773ffffffffffffffffffffffffffffffffffffffff1673ffffffffffffffffffffffffffffffffffffffff1681526020018673ffffffffffffffffffffffffffffffffffffffff1673ffffffffffffffffffffffffffffffffffffffff16815260200185815260200184815260200183815260200180602001828103825283818151815260200191508051906020019080838360005b838110156102c75780820151818401526020810190506102ac565b50505050905090810190601f1680156102f45780820380516001836020036101000a031916815260200191505b50995050505050505050505060405180910390f35b34801561031557600080fd5b506103846004803603810190808035906020019092919080359060200190929190803590602001908201803590602001908080601f0160208091040260200160405190810160405280939291908181526020018383808284378201915050505050509192919290505050610c49565b005b34801561039257600080fd5b506103b160048036038101908080359060200190929190505050610fc3565b005b3480156103bf57600080fd5b506103de60048036038101908080359060200190929190505050611213565b005b3480156103ec57600080fd5b5061040b600480360381019080803590602001909291905050506115bc565b604051808673ffffffffffffffffffffffffffffffffffffffff1673ffffffffffffffffffffffffffffffffffffffff1681526020018573ffffffffffffffffffffffffffffffffffffffff1673ffffffffffffffffffffffffffffffffffffffff1681526020018473ffffffffffffffffffffffffffffffffffffffff1673ffffffffffffffffffffffffffffffffffffffff1681526020018381526020018281526020019550505050505060405180910390f35b82600073ffffffffffffffffffffffffffffffffffffffff166002600083815260200190815260200160002060010160009054906101000a900473ffffffffffffffffffffffffffffffffffffffff1673ffffffffffffffffffffffffffffffffffffffff1614151561059c576040517f08c379a000000000000000000000000000000000000000000000000000000000815260040180806020018281038252601a8152602001807f50726f706572747920616c72656164792072657175657374656400000000000081525060200191505060405180910390fd5b336002600086815260200190815260200160002060010160006101000a81548173ffffffffffffffffffffffffffffffffffffffff021916908373ffffffffffffffffffffffffffffffffffffffff160217905550826002600086815260200190815260200160002060040181905550816002600086815260200190815260200160002060050181905550837f54593fbf3d0e13af724316e44a7387ee756ab753993496c7009658e83217002c60405160405180910390a250505050565b60006060600260008481526020019081526020016000206000015460026000858152602001908152602001600020600701808054600181600116156101000203166002900480601f0160208091040260200160405190810160405280929190818152602001828054600181600116156101000203166002900480156107205780601f106106f557610100808354040283529160200191610720565b820191906000526020600020905b81548152906001019060200180831161070357829003601f168201915b5050505050905091509150915091565b3373ffffffffffffffffffffffffffffffffffffffff166002600083815260200190815260200160002060030160009054906101000a900473ffffffffffffffffffffffffffffffffffffffff1673ffffffffffffffffffffffffffffffffffffffff16141515610809576040517f08c379a00000000000000000000000000000000000000000000000000000000081526004018080602001828103825260178152602001807f596f75277265206e6f7420746865206f63637570616e7400000000000000000081525060200191505060405180910390fd5b60006002600083815260200190815260200160002060010160006101000a81548173ffffffffffffffffffffffffffffffffffffffff021916908373ffffffffffffffffffffffffffffffffffffffff160217905550600160009054906101000a900473ffffffffffffffffffffffffffffffffffffffff1673ffffffffffffffffffffffffffffffffffffffff1663a9059cbb6000809054906101000a900473ffffffffffffffffffffffffffffffffffffffff1673ffffffffffffffffffffffffffffffffffffffff16636352211e846040518263ffffffff167c010000000000000000000000000000000000000000000000000000000002815260040180828152602001915050602060405180830381600087803b15801561092d57600080fd5b505af1158015610941573d6000803e3d6000fd5b505050506040513d602081101561095757600080fd5b810190808051906020019092919050505060026000858152602001908152602001600020600001546040518363ffffffff167c0100000000000000000000000000000000000000000000000000000000028152600401808373ffffffffffffffffffffffffffffffffffffffff1673ffffffffffffffffffffffffffffffffffffffff16815260200182815260200192505050602060405180830381600087803b158015610a0457600080fd5b505af1158015610a18573d6000803e3d6000fd5b505050506040513d6020811015610a2e57600080fd5b81019080805190602001909291905050501515610ab3576040517f08c379a00000000000000000000000000000000000000000000000000000000081526004018080602001828103825260158152602001807f436f756c64206e6f74207265636569766520666565000000000000000000000081525060200191505060405180910390fd5b6002600082815260200190815260200160002060060160008154809291906001019190505550807f2c276699fefbad45f18509233bc03bb9cfdf41b18f32756933188bdef35fef5560405160405180910390a250565b60026020528060005260406000206000915090508060000154908060010160009054906101000a900473ffffffffffffffffffffffffffffffffffffffff16908060020160009054906101000a900473ffffffffffffffffffffffffffffffffffffffff16908060030160009054906101000a900473ffffffffffffffffffffffffffffffffffffffff1690806004015490806005015490806006015490806007018054600181600116156101000203166002900480601f016020809104026020016040519081016040528092919081815260200182805460018160011615610100020316600290048015610c3f5780601f10610c1457610100808354040283529160200191610c3f565b820191906000526020600020905b815481529060010190602001808311610c2257829003601f168201915b5050505050905088565b823373ffffffffffffffffffffffffffffffffffffffff166000809054906101000a900473ffffffffffffffffffffffffffffffffffffffff1673ffffffffffffffffffffffffffffffffffffffff16636352211e836040518263ffffffff167c010000000000000000000000000000000000000000000000000000000002815260040180828152602001915050602060405180830381600087803b158015610cf157600080fd5b505af1158015610d05573d6000803e3d6000fd5b505050506040513d6020811015610d1b57600080fd5b810190808051906020019092919050505073ffffffffffffffffffffffffffffffffffffffff16141515610ddd576040517f08c379a00000000000000000000000000000000000000000000000000000000081526004018080602001828103825260318152602001807f4f6e6c79207468652061737365742773206f776e65722063616e20706572666f81526020017f726d2074686973206f7065726174696f6e00000000000000000000000000000081525060400191505060405180910390fd5b61010060405190810160405280848152602001600073ffffffffffffffffffffffffffffffffffffffff168152602001600073ffffffffffffffffffffffffffffffffffffffff168152602001600073ffffffffffffffffffffffffffffffffffffffff16815260200160008152602001600081526020016000815260200183815250600260008681526020019081526020016000206000820151816000015560208201518160010160006101000a81548173ffffffffffffffffffffffffffffffffffffffff021916908373ffffffffffffffffffffffffffffffffffffffff16021790555060408201518160020160006101000a81548173ffffffffffffffffffffffffffffffffffffffff021916908373ffffffffffffffffffffffffffffffffffffffff16021790555060608201518160030160006101000a81548173ffffffffffffffffffffffffffffffffffffffff021916908373ffffffffffffffffffffffffffffffffffffffff1602179055506080820151816004015560a0820151816005015560c0820151816006015560e0820151816007019080519060200190610f8c92919061183f565b50905050837f1fcb8fd4a09d0facf37b6e1cd47a0cce5aa0b069a1d3d5bd9c223220fa1f5a1c60405160405180910390a250505050565b803373ffffffffffffffffffffffffffffffffffffffff166000809054906101000a900473ffffffffffffffffffffffffffffffffffffffff1673ffffffffffffffffffffffffffffffffffffffff16636352211e836040518263ffffffff167c010000000000000000000000000000000000000000000000000000000002815260040180828152602001915050602060405180830381600087803b15801561106b57600080fd5b505af115801561107f573d6000803e3d6000fd5b505050506040513d602081101561109557600080fd5b810190808051906020019092919050505073ffffffffffffffffffffffffffffffffffffffff16141515611157576040517f08c379a00000000000000000000000000000000000000000000000000000000081526004018080602001828103825260318152602001807f4f6e6c79207468652061737365742773206f776e65722063616e20706572666f81526020017f726d2074686973206f7065726174696f6e00000000000000000000000000000081525060400191505060405180910390fd5b6002600083815260200190815260200160002060010160009054906101000a900473ffffffffffffffffffffffffffffffffffffffff166002600084815260200190815260200160002060020160006101000a81548173ffffffffffffffffffffffffffffffffffffffff021916908373ffffffffffffffffffffffffffffffffffffffff160217905550817f3ad93af63cb7967b23e4fb500b7d7d28b07516325dcf341f88bebf959d82c1cb60405160405180910390a25050565b3373ffffffffffffffffffffffffffffffffffffffff166002600083815260200190815260200160002060020160009054906101000a900473ffffffffffffffffffffffffffffffffffffffff1673ffffffffffffffffffffffffffffffffffffffff161415156112ec576040517f08c379a00000000000000000000000000000000000000000000000000000000081526004018080602001828103825260138152602001807f596f75277265206e6f7420617070726f7665640000000000000000000000000081525060200191505060405180910390fd5b600260008281526020019081526020016000206004015442111515611379576040517f08c379a00000000000000000000000000000000000000000000000000000000081526004018080602001828103825260188152602001807f4e6f742077697468696e20636865636b20696e2074696d65000000000000000081525060200191505060405180910390fd5b600160009054906101000a900473ffffffffffffffffffffffffffffffffffffffff1673ffffffffffffffffffffffffffffffffffffffff166323b872dd333060026000868152602001908152602001600020600001546040518463ffffffff167c0100000000000000000000000000000000000000000000000000000000028152600401808473ffffffffffffffffffffffffffffffffffffffff1673ffffffffffffffffffffffffffffffffffffffff1681526020018373ffffffffffffffffffffffffffffffffffffffff1673ffffffffffffffffffffffffffffffffffffffff1681526020018281526020019350505050602060405180830381600087803b15801561148857600080fd5b505af115801561149c573d6000803e3d6000fd5b505050506040513d60208110156114b257600080fd5b81019080805190602001909291905050501515611537576040517f08c379a00000000000000000000000000000000000000000000000000000000081526004018080602001828103825260128152602001807f436f756c64206e6f7420706179206665652e000000000000000000000000000081525060200191505060405180910390fd5b336002600083815260200190815260200160002060030160006101000a81548173ffffffffffffffffffffffffffffffffffffffff021916908373ffffffffffffffffffffffffffffffffffffffff160217905550807fdf06c27528e294967ba5e32e69b9c5fe102a58c699c44740c2c4c6afc719253560405160405180910390a250565b6000806000806000853373ffffffffffffffffffffffffffffffffffffffff166000809054906101000a900473ffffffffffffffffffffffffffffffffffffffff1673ffffffffffffffffffffffffffffffffffffffff16636352211e836040518263ffffffff167c010000000000000000000000000000000000000000000000000000000002815260040180828152602001915050602060405180830381600087803b15801561166c57600080fd5b505af1158015611680573d6000803e3d6000fd5b505050506040513d602081101561169657600080fd5b810190808051906020019092919050505073ffffffffffffffffffffffffffffffffffffffff16141515611758576040517f08c379a00000000000000000000000000000000000000000000000000000000081526004018080602001828103825260318152602001807f4f6e6c79207468652061737365742773206f776e65722063616e20706572666f81526020017f726d2074686973206f7065726174696f6e00000000000000000000000000000081525060400191505060405180910390fd5b6002600088815260200190815260200160002060010160009054906101000a900473ffffffffffffffffffffffffffffffffffffffff166002600089815260200190815260200160002060020160009054906101000a900473ffffffffffffffffffffffffffffffffffffffff16600260008a815260200190815260200160002060030160009054906101000a900473ffffffffffffffffffffffffffffffffffffffff16600260008b815260200190815260200160002060040154600260008c815260200190815260200160002060050154955095509550955095505091939590929450565b828054600181600116156101000203166002900490600052602060002090601f016020900481019282601f1061188057805160ff19168380011785556118ae565b828001600101855582156118ae579182015b828111156118ad578251825591602001919060010190611892565b5b5090506118bb91906118bf565b5090565b6118e191905b808211156118dd5760008160009055506001016118c5565b5090565b905600a165627a7a72305820b61b430455ffcf326036fd0455ef3918dfe701ce0fbb31fdb1324ccbc9def0240029",
  "source": "pragma solidity ^0.4.24;\n\nimport \"zeppelin-solidity/contracts/token/ERC721/ERC721BasicToken.sol\";\nimport \"zeppelin-solidity/contracts/token/ERC20/ERC20.sol\";\n\n\ncontract PropertyRegistry {\n  \n  ERC721BasicToken propertyContract;\n  ERC20 propertyToken;\n\n  struct Data {\n    uint256 price;\n    address requested;\n    address approved;\n    address occupant;\n    uint256 checkIn;\n    uint256 checkOut;\n    uint256 stays;\n    string uri;\n  }\n\n  mapping(uint256 => Data) public propertyDetails;\n\n  modifier onlyOwner(uint256 _tokenId) {\n    require(propertyContract.ownerOf(_tokenId) == msg.sender, \"Only the asset's owner can perform this operation\");\n    _;\n  }\n\n  modifier notRequested(uint256 _tokenId) {\n    require(propertyDetails[_tokenId].requested == address(0), \"Property already requested\");\n    _;\n  }\n\n  event Registered(uint256 indexed _tokenId); \n  event Approved(uint256 indexed _tokenId); \n  event Requested(uint256 indexed _tokenId); \n  event CheckIn(uint256 indexed _tokenId); \n  event CheckOut(uint256 indexed _tokenId); \n\n  constructor(address _propertyContract, address _propertyToken) public {\n    propertyContract = ERC721BasicToken(_propertyContract);\n    propertyToken = ERC20(_propertyToken);\n  }\n\n  // function getAllPropertyIds() public view returns(uint256) {\n  //   return propertyDetails\n  // }\n\n  function getPropertyDetails(uint256 _tokenId) public view returns(uint256, string) {\n    return (propertyDetails[_tokenId].price, propertyDetails[_tokenId].uri);\n  }\n\n  function getDetailedPropertyDetails(uint256 _tokenId) public view onlyOwner(_tokenId) returns(address, address, address, uint256, uint256) {\n    return (propertyDetails[_tokenId].requested, propertyDetails[_tokenId].approved,\n    propertyDetails[_tokenId].occupant, propertyDetails[_tokenId].checkIn, propertyDetails[_tokenId].checkOut);\n  }\n\n  // function getProperties() external view returns(uint256[]) {\n  //   return ownedTokens[msg.sender];\n  // }\n\n  function registerProperty(uint256 _tokenId, uint256 _price, string _uri) public onlyOwner(_tokenId) {\n    propertyDetails[_tokenId] = Data(_price, address(0), address(0), address(0), 0, 0, 0, _uri);\n    emit Registered(_tokenId); \n  }\n\n  function requestStay(uint256 _tokenId, uint256 _checkIn, uint256 _checkOut) public notRequested(_tokenId) {\n    propertyDetails[_tokenId].requested = msg.sender;\n    propertyDetails[_tokenId].checkIn = _checkIn;\n    propertyDetails[_tokenId].checkOut = _checkOut;\n    emit Requested(_tokenId);\n  }\n\n  function approveRequest(uint256 _tokenId) public onlyOwner(_tokenId) {\n    propertyDetails[_tokenId].approved = propertyDetails[_tokenId].requested;\n    emit Approved(_tokenId);\n  }\n\n  function checkIn(uint256 _tokenId) public {\n    require(propertyDetails[_tokenId].approved == msg.sender, \"You're not approved\");\n    require(now > propertyDetails[_tokenId].checkIn, \"Not within check in time\");\n    require(propertyToken.transferFrom(msg.sender, address(this), propertyDetails[_tokenId].price), \"Could not pay fee.\");\n    propertyDetails[_tokenId].occupant = msg.sender;\n    emit CheckIn(_tokenId);\n  }\n\n  function checkOut(uint256 _tokenId) public {\n    require(propertyDetails[_tokenId].occupant == msg.sender, \"You're not the occupant\");\n    propertyDetails[_tokenId].requested = address(0);\n    require(propertyToken.transfer(propertyContract.ownerOf(_tokenId), propertyDetails[_tokenId].price), \"Could not receive fee\");\n    propertyDetails[_tokenId].stays++;\n    emit CheckOut(_tokenId);\n  }\n}\n",
  "sourcePath": "/Users/bernardosiqueira/blockchain-lhl/bnb/contracts/PropertyRegistry.sol",
  "compiler": {
    "name": "solc",
    "version": "0.4.24+commit.e67f0147.Emscripten.clang"
  },
  "schemaVersion": "2.0.1",
  "updatedAt": "2018-11-28T04:02:23.206Z"
}