{
  "contractName": "VoteForBest",
  "abi": [
    {
      "constant": true,
      "inputs": [],
      "name": "getRDR2Votes",
      "outputs": [
        {
          "name": "",
          "type": "uint256"
        }
      ],
      "payable": false,
      "stateMutability": "view",
      "type": "function"
    },
    {
      "constant": true,
      "inputs": [],
      "name": "getACOVotes",
      "outputs": [
        {
          "name": "",
          "type": "uint256"
        }
      ],
      "payable": false,
      "stateMutability": "view",
      "type": "function"
    },
    {
      "constant": false,
      "inputs": [],
      "name": "voteForRDR2",
      "outputs": [],
      "payable": false,
      "stateMutability": "nonpayable",
      "type": "function"
    },
    {
      "constant": false,
      "inputs": [],
      "name": "voteForACO",
      "outputs": [],
      "payable": false,
      "stateMutability": "nonpayable",
      "type": "function"
    }
  ],
  "bytecode": "0x608060405234801561001057600080fd5b50610151806100206000396000f300608060405260043610610062576000357c0100000000000000000000000000000000000000000000000000000000900463ffffffff168063196c33e7146100675780633a9e07f21461007e578063704329f614610095578063c7bbabcf146100c0575b600080fd5b34801561007357600080fd5b5061007c6100eb565b005b34801561008a57600080fd5b506100936100fe565b005b3480156100a157600080fd5b506100aa610112565b6040518082815260200191505060405180910390f35b3480156100cc57600080fd5b506100d561011c565b6040518082815260200191505060405180910390f35b6000808154809291906001019190505550565b600160008154809291906001019190505550565b6000600154905090565b600080549050905600a165627a7a72305820241b8475d105bddd7587a619568a70fad42eb92eda10b3738ba9d6a465bbd02b0029",
  "source": "pragma solidity ^0.4.22;\n\n\ncontract VoteForBest {\n  uint256 RDR2Votes;\n  uint256 ACOVotes;\n\n  function getRDR2Votes() public view returns (uint) {\n    return RDR2Votes;\n  }\n\n  function getACOVotes() public view returns (uint) {\n    return ACOVotes;\n  }\n\n  function voteForRDR2() public {\n    RDR2Votes++;\n  }\n\n  function voteForACO() public {\n    ACOVotes++;\n  }\n}\n",
  "sourcePath": "/home/bernard/blockchain-lhl/HelloTruffle/contracts/VoteForBest.sol",
  "compiler": {
    "name": "solc",
    "version": "0.4.24+commit.e67f0147.Emscripten.clang"
  },
  "schemaVersion": "2.0.1",
  "updatedAt": "2018-10-23T23:53:20.891Z"
}