{
  "contractName": "PropertyRegistry",
  "abi": [
    {
      "constant": true,
      "inputs": [
        {
          "name": "",
          "type": "uint256"
        }
      ],
      "name": "propertyDetails",
      "outputs": [
        {
          "name": "price",
          "type": "uint256"
        },
        {
          "name": "requested",
          "type": "address"
        },
        {
          "name": "approved",
          "type": "address"
        },
        {
          "name": "occupant",
          "type": "address"
        },
        {
          "name": "checkIn",
          "type": "uint256"
        },
        {
          "name": "checkOut",
          "type": "uint256"
        },
        {
          "name": "stays",
          "type": "uint256"
        },
        {
          "name": "uri",
          "type": "string"
        }
      ],
      "payable": false,
      "stateMutability": "view",
      "type": "function"
    },
    {
      "inputs": [
        {
          "name": "_propertyContract",
          "type": "address"
        }
      ],
      "payable": false,
      "stateMutability": "nonpayable",
      "type": "constructor"
    },
    {
      "constant": true,
      "inputs": [
        {
          "name": "_tokenId",
          "type": "uint256"
        }
      ],
      "name": "getPropertyDetails",
      "outputs": [
        {
          "name": "",
          "type": "uint256"
        },
        {
          "name": "",
          "type": "address"
        },
        {
          "name": "",
          "type": "string"
        }
      ],
      "payable": false,
      "stateMutability": "view",
      "type": "function"
    },
    {
      "constant": false,
      "inputs": [
        {
          "name": "_tokenId",
          "type": "uint256"
        },
        {
          "name": "_price",
          "type": "uint256"
        },
        {
          "name": "_uri",
          "type": "string"
        }
      ],
      "name": "registerProperty",
      "outputs": [],
      "payable": false,
      "stateMutability": "nonpayable",
      "type": "function"
    },
    {
      "constant": false,
      "inputs": [
        {
          "name": "_tokenId",
          "type": "uint256"
        },
        {
          "name": "_checkIn",
          "type": "uint256"
        },
        {
          "name": "_checkOut",
          "type": "uint256"
        }
      ],
      "name": "requestStay",
      "outputs": [],
      "payable": false,
      "stateMutability": "nonpayable",
      "type": "function"
    },
    {
      "constant": false,
      "inputs": [
        {
          "name": "_tokenId",
          "type": "uint256"
        }
      ],
      "name": "approveRequest",
      "outputs": [],
      "payable": false,
      "stateMutability": "nonpayable",
      "type": "function"
    },
    {
      "constant": false,
      "inputs": [
        {
          "name": "_tokenId",
          "type": "uint256"
        }
      ],
      "name": "checkIn",
      "outputs": [],
      "payable": false,
      "stateMutability": "nonpayable",
      "type": "function"
    },
    {
      "constant": false,
      "inputs": [
        {
          "name": "_tokenId",
          "type": "uint256"
        }
      ],
      "name": "checkOut",
      "outputs": [],
      "payable": false,
      "stateMutability": "nonpayable",
      "type": "function"
    }
  ],
  "bytecode": "0x608060405234801561001057600080fd5b506040516020806111a083398101806040528101908080519060200190929190505050806000806101000a81548173ffffffffffffffffffffffffffffffffffffffff021916908373ffffffffffffffffffffffffffffffffffffffff1602179055505061111d806100836000396000f300608060405260043610610083576000357c0100000000000000000000000000000000000000000000000000000000900463ffffffff1680630a65be6714610088578063126dbe43146100c95780631bd2eeee146101a957806381db4147146101d6578063ccfc7f7214610331578063d7d1bbdb146103ae578063e95a644f146103db575b600080fd5b34801561009457600080fd5b506100c7600480360381019080803590602001909291908035906020019092919080359060200190929190505050610408565b005b3480156100d557600080fd5b506100f460048036038101908080359060200190929190505050610574565b604051808481526020018373ffffffffffffffffffffffffffffffffffffffff1673ffffffffffffffffffffffffffffffffffffffff16815260200180602001828103825283818151815260200191508051906020019080838360005b8381101561016c578082015181840152602081019050610151565b50505050905090810190601f1680156101995780820380516001836020036101000a031916815260200191505b5094505050505060405180910390f35b3480156101b557600080fd5b506101d460048036038101908080359060200190929190505050610686565b005b3480156101e257600080fd5b50610201600480360381019080803590602001909291905050506107de565b604051808981526020018873ffffffffffffffffffffffffffffffffffffffff1673ffffffffffffffffffffffffffffffffffffffff1681526020018773ffffffffffffffffffffffffffffffffffffffff1673ffffffffffffffffffffffffffffffffffffffff1681526020018673ffffffffffffffffffffffffffffffffffffffff1673ffffffffffffffffffffffffffffffffffffffff16815260200185815260200184815260200183815260200180602001828103825283818151815260200191508051906020019080838360005b838110156102ef5780820151818401526020810190506102d4565b50505050905090810190601f16801561031c5780820380516001836020036101000a031916815260200191505b50995050505050505050505060405180910390f35b34801561033d57600080fd5b506103ac6004803603810190808035906020019092919080359060200190929190803590602001908201803590602001908080601f016020809104026020016040519081016040528093929190818152602001838380828437820191505050505050919291929050505061091e565b005b3480156103ba57600080fd5b506103d960048036038101908080359060200190929190505050610c6b565b005b3480156103e757600080fd5b5061040660048036038101908080359060200190929190505050610e8e565b005b82600073ffffffffffffffffffffffffffffffffffffffff166002600083815260200190815260200160002060010160009054906101000a900473ffffffffffffffffffffffffffffffffffffffff1673ffffffffffffffffffffffffffffffffffffffff161415156104e3576040517f08c379a000000000000000000000000000000000000000000000000000000000815260040180806020018281038252601a8152602001807f50726f706572747920616c72656164792072657175657374656400000000000081525060200191505060405180910390fd5b336002600086815260200190815260200160002060010160006101000a81548173ffffffffffffffffffffffffffffffffffffffff021916908373ffffffffffffffffffffffffffffffffffffffff16021790555082600260008681526020019081526020016000206004018190555081600260008681526020019081526020016000206005018190555050505050565b600080606060026000858152602001908152602001600020600001546002600086815260200190815260200160002060030160009054906101000a900473ffffffffffffffffffffffffffffffffffffffff1660026000878152602001908152602001600020600701808054600181600116156101000203166002900480601f0160208091040260200160405190810160405280929190818152602001828054600181600116156101000203166002900480156106725780601f1061064757610100808354040283529160200191610672565b820191906000526020600020905b81548152906001019060200180831161065557829003601f168201915b505050505090509250925092509193909250565b3373ffffffffffffffffffffffffffffffffffffffff166002600083815260200190815260200160002060030160009054906101000a900473ffffffffffffffffffffffffffffffffffffffff1673ffffffffffffffffffffffffffffffffffffffff1614151561075f576040517f08c379a00000000000000000000000000000000000000000000000000000000081526004018080602001828103825260178152602001807f596f75277265206e6f7420746865206f63637570616e7400000000000000000081525060200191505060405180910390fd5b60006002600083815260200190815260200160002060010160006101000a81548173ffffffffffffffffffffffffffffffffffffffff021916908373ffffffffffffffffffffffffffffffffffffffff160217905550600260008281526020019081526020016000206006016000815480929190600101919050555050565b60026020528060005260406000206000915090508060000154908060010160009054906101000a900473ffffffffffffffffffffffffffffffffffffffff16908060020160009054906101000a900473ffffffffffffffffffffffffffffffffffffffff16908060030160009054906101000a900473ffffffffffffffffffffffffffffffffffffffff1690806004015490806005015490806006015490806007018054600181600116156101000203166002900480601f0160208091040260200160405190810160405280929190818152602001828054600181600116156101000203166002900480156109145780601f106108e957610100808354040283529160200191610914565b820191906000526020600020905b8154815290600101906020018083116108f757829003601f168201915b5050505050905088565b823373ffffffffffffffffffffffffffffffffffffffff166000809054906101000a900473ffffffffffffffffffffffffffffffffffffffff1673ffffffffffffffffffffffffffffffffffffffff16636352211e836040518263ffffffff167c010000000000000000000000000000000000000000000000000000000002815260040180828152602001915050602060405180830381600087803b1580156109c657600080fd5b505af11580156109da573d6000803e3d6000fd5b505050506040513d60208110156109f057600080fd5b810190808051906020019092919050505073ffffffffffffffffffffffffffffffffffffffff16141515610ab2576040517f08c379a00000000000000000000000000000000000000000000000000000000081526004018080602001828103825260318152602001807f4f6e6c79207468652061737365742773206f776e65722063616e20706572666f81526020017f726d2074686973206f7065726174696f6e00000000000000000000000000000081525060400191505060405180910390fd5b61010060405190810160405280848152602001600073ffffffffffffffffffffffffffffffffffffffff168152602001600073ffffffffffffffffffffffffffffffffffffffff168152602001600073ffffffffffffffffffffffffffffffffffffffff16815260200160008152602001600081526020016000815260200183815250600260008681526020019081526020016000206000820151816000015560208201518160010160006101000a81548173ffffffffffffffffffffffffffffffffffffffff021916908373ffffffffffffffffffffffffffffffffffffffff16021790555060408201518160020160006101000a81548173ffffffffffffffffffffffffffffffffffffffff021916908373ffffffffffffffffffffffffffffffffffffffff16021790555060608201518160030160006101000a81548173ffffffffffffffffffffffffffffffffffffffff021916908373ffffffffffffffffffffffffffffffffffffffff1602179055506080820151816004015560a0820151816005015560c0820151816006015560e0820151816007019080519060200190610c6192919061104c565b5090505050505050565b803373ffffffffffffffffffffffffffffffffffffffff166000809054906101000a900473ffffffffffffffffffffffffffffffffffffffff1673ffffffffffffffffffffffffffffffffffffffff16636352211e836040518263ffffffff167c010000000000000000000000000000000000000000000000000000000002815260040180828152602001915050602060405180830381600087803b158015610d1357600080fd5b505af1158015610d27573d6000803e3d6000fd5b505050506040513d6020811015610d3d57600080fd5b810190808051906020019092919050505073ffffffffffffffffffffffffffffffffffffffff16141515610dff576040517f08c379a00000000000000000000000000000000000000000000000000000000081526004018080602001828103825260318152602001807f4f6e6c79207468652061737365742773206f776e65722063616e20706572666f81526020017f726d2074686973206f7065726174696f6e00000000000000000000000000000081525060400191505060405180910390fd5b6002600083815260200190815260200160002060010160009054906101000a900473ffffffffffffffffffffffffffffffffffffffff166002600084815260200190815260200160002060020160006101000a81548173ffffffffffffffffffffffffffffffffffffffff021916908373ffffffffffffffffffffffffffffffffffffffff1602179055505050565b3373ffffffffffffffffffffffffffffffffffffffff166002600083815260200190815260200160002060020160009054906101000a900473ffffffffffffffffffffffffffffffffffffffff1673ffffffffffffffffffffffffffffffffffffffff16141515610f67576040517f08c379a00000000000000000000000000000000000000000000000000000000081526004018080602001828103825260138152602001807f596f75277265206e6f7420617070726f7665640000000000000000000000000081525060200191505060405180910390fd5b600260008281526020019081526020016000206004015442111515610ff4576040517f08c379a00000000000000000000000000000000000000000000000000000000081526004018080602001828103825260188152602001807f4e6f742077697468696e20636865636b20696e2074696d65000000000000000081525060200191505060405180910390fd5b336002600083815260200190815260200160002060030160006101000a81548173ffffffffffffffffffffffffffffffffffffffff021916908373ffffffffffffffffffffffffffffffffffffffff16021790555050565b828054600181600116156101000203166002900490600052602060002090601f016020900481019282601f1061108d57805160ff19168380011785556110bb565b828001600101855582156110bb579182015b828111156110ba57825182559160200191906001019061109f565b5b5090506110c891906110cc565b5090565b6110ee91905b808211156110ea5760008160009055506001016110d2565b5090565b905600a165627a7a72305820c9b3e3530a986c84192dc138db1bf5fead638a4e4a864176c9b7658af0a65ff20029",
  "source": "pragma solidity ^0.4.24;\n\nimport \"zeppelin-solidity/contracts/token/ERC721/ERC721Basic.sol\";\nimport \"zeppelin-solidity/contracts/token/ERC20/ERC20.sol\";\n\n\ncontract PropertyRegistry {\n  \n  ERC721Basic propertyContract;\n  ERC20 propertyToken;\n\n  struct Data {\n    uint256 price;\n    address requested;\n    address approved;\n    address occupant;\n    uint256 checkIn;\n    uint256 checkOut;\n    uint256 stays;\n    string uri;\n  }\n\n  mapping(uint256 => Data) public propertyDetails;\n\n  modifier onlyOwner(uint256 _tokenId) {\n    require(propertyContract.ownerOf(_tokenId) == msg.sender, \"Only the asset's owner can perform this operation\");\n    _;\n  }\n\n  modifier notRequested(uint256 _tokenId) {\n    require(propertyDetails[_tokenId].requested == address(0), \"Property already requested\");\n    _;\n  }\n\n  constructor(address _propertyContract) public {\n    propertyContract = ERC721Basic(_propertyContract);\n  }\n\n  function getPropertyDetails(uint256 _tokenId) public view returns(uint256, address, string) {\n    return (propertyDetails[_tokenId].price, propertyDetails[_tokenId].occupant, propertyDetails[_tokenId].uri);\n  }\n\n  function registerProperty(uint256 _tokenId, uint256 _price, string _uri) public onlyOwner(_tokenId) {\n    propertyDetails[_tokenId] = Data(_price, address(0), address(0), address(0), 0, 0, 0, _uri); \n  }\n\n  function requestStay(uint256 _tokenId, uint256 _checkIn, uint256 _checkOut) public notRequested(_tokenId) {\n    propertyDetails[_tokenId].requested = msg.sender;\n    propertyDetails[_tokenId].checkIn = _checkIn;\n    propertyDetails[_tokenId].checkOut = _checkOut;\n  }\n\n  function approveRequest(uint256 _tokenId) public onlyOwner(_tokenId) {\n    propertyDetails[_tokenId].approved = propertyDetails[_tokenId].requested;\n  }\n\n  function checkIn(uint256 _tokenId) public {\n    require(propertyDetails[_tokenId].approved == msg.sender, \"You're not approved\");\n    require(now > propertyDetails[_tokenId].checkIn, \"Not within check in time\");\n    propertyDetails[_tokenId].occupant = msg.sender;\n  }\n\n  function checkOut(uint256 _tokenId) public {\n    require(propertyDetails[_tokenId].occupant == msg.sender, \"You're not the occupant\");\n    propertyDetails[_tokenId].requested = address(0);\n    propertyDetails[_tokenId].stays++;\n  }\n}\n",
  "sourcePath": "/Users/bernardosiqueira/blockchain-lhl/bnb/contracts/PropertyRegistry.sol",
  "compiler": {
    "name": "solc",
    "version": "0.4.24+commit.e67f0147.Emscripten.clang"
  },
  "schemaVersion": "2.0.1",
  "updatedAt": "2018-11-18T05:50:02.989Z"
}